:020000040800F2
:1000000000900020D5370008253800085509000861
:1000100000000000000000000000000000000000E0
:10002000000000000000000000000000253800086B
:10003000000000000000000025380008B509000895
:10004000253800082538000825380008253800081C
:10005000C50900082538000825380008890A000865
:1000600025380008850B00082538000825380008C9
:10007000E90A0008DD090008ED090008490D00083B
:1000800025380008D10A000825380008253800085E
:100090002538000825380008D10E0008253800084A
:1000A00025380008253800082538000825380008BC
:0C00B000ED0B000825380008253800087A
:1000BC00F0B50124C02384400B4D5B00EC500700CD
:1000CC00830803203840FF27AC46C026C000874079
:1000DC00890181409B006344B6009A59BA430A4394
:1000EC009A512C60F0BDC04600E100E0021E184B96
:1000FC0027D0402199613E390140C3074842414114
:10010C00144849420140802080028446DB171B04BE
:10011C001B0C614401330B430421114216D0802186
:10012C00C9020B4308201040424250410A4A404247
:10013C00104080229203944660441843074B986108
:10014C007047402220209A620723F6E70B43E9E729
:10015C00000800500200FEFF2000E0FF00040050E9
:10016C00F0B5C64600B582B007006846008C8446E0
:10017C001C4880460078002821D04446251D0024C8
:10018C0004E00134E6B20C35B04218D92E78BE42E8
:10019C00F7D14046051D6000001980002C186546FB
:1001AC00A06800930195130065680A003900A84700
:1001BC006388012B07D0002B01D0013B638002B078
:1001CC0080BCB846F0BD434642461B78013BDBB2CF
:1001DC0013705A00D3189B004344043323CB23C41D
:1001EC00EDE7C04658000020F0B5164F3E78002EC3
:1001FC0024D000233C1D04E00133DDB20C34AE42AC
:10020C000CD925788542F7D15C00E31804379B00A4
:10021C00FB180D48996058605A80F0BD0A2EFCD02E
:10022C007400A419751C3B1DA400EDB21B197400BD
:10023C00A419A4003D703F193871EAE70026012586
:10024C003B1DF4E7580000200D130008F0B5012207
:10025C004F46D64646460B6800249146C0B5002B47
:10026C000AD142E07A4305682B40134303600B68C4
:10027C001A000134E24038D04A461D00A240154015
:10028C001342F5D02A006A434F6853009B18013F74
:10029C00DB43012F0BD88F68866857431E403743CA
:1002AC008760CE6847686E43AF43374347600F693A
:1002BC00C66857431E403743C7604F68022FD1D1E1
:1002CC004F69FF2D16D816005643B446056A360101
:1002DC00AA466546761B35005646AE433500664643
:1002EC0077433D4305624F68BCE7E0BCBA46B14674
:1002FC00A846F0BD2D0A6D436D43466AAA46B44626
:10030C002E01761BB04666464546AE4355466F43B6
:10031C00374347624F68A5E710B5034B0A00190035
:10032C00024804F0D5F910BD506400085868000864
:10033C0010B5034B0A001900024804F0C9F910BDAE
:10034C00606400085868000870B50C005026050061
:10035C0082B01D4804F0BCF9C22366439B00EC54E8
:10036C00002E15D1C22301229B00EB180092002114
:10037C0003320720FFF7F4FE630832341C19E4B291
:10038C002100124804F0A4F9E435AC7102B070BD40
:10039C0031000F4804F09CF90E4B0F4A1E80331CA1
:1003AC00964200D9131C0D4A9BB2934200D2130003
:1003BC00094AD21A0A4B5343802212019446094A25
:1003CC0063441B0B5361CDE7606800089868000814
:1003DC008068000824010020D3270000B20400002C
:1003EC00490700000074004030B5448987B00234DE
:1003FC00A405240E4379027901680494447B074DCB
:10040C000394C488029404890194007B30300090DA
:10041C00280004F05DF907B030BDC046BC68000888
:10042C004B42594110B54900002300220C3104F015
:10043C00ADFB10BD10B582B000920193D623426F74
:10044C005B00D358002B0FD004008034009A216835
:10045C00521A9A4208D308236A46142104F096FBD8
:10046C00009A019B2260636002B010BD012170B53F
:10047C00154B164C1A6825008A431A60144A05312C
:10048C005A62DA68E0358A43DA601A6901318A43C4
:10049C001A6140220F4B9A622B78002B07D19423C0
:1004AC000022E0582621002304F070FB70BD2200CE
:1004BC002300D432D5331B7810781843FFF716FE7F
:1004CC0000232B70EBE7C046002C014058000020A5
:1004DC00FFFF000000080050FA2170B5124D040017
:1004EC008900286802F064FF802301385B0498427D
:1004FC0001D3012070BDC0210C4A0D4E5060336AEF
:10050C0009061B021B0A0B43336200200723906071
:10051C001360032CEDD8336AA2071B021B0A13438A
:10052C0033626C60E6E7C0460000002010E000E09B
:10053C0000ED00E010B5124CA8220021200004F0C0
:10054C00E3FF03230F4A236163610F4BA261E36155
:10055C0080239B0123620023A3626362E362226611
:10056C000A4A62661022A266094A2367E366636739
:10057C001178013AE1540133102BF9D110BDC0466A
:10058C008021002014690008800100203C0100201B
:10059C007F640008F0B5C64600B5C3688768984606
:1005AC00040040680D00FE1AC0189044964206D90B
:1005BC0004F0FEFF4346E36080BCB846F0BD320059
:1005CC0004F0F6FF4346DB1B1A006068A919984635
:1005DC0004F0EEFFEEE7C046F0B5DE4657464E4659
:1005EC004546E0B53D4B04009B461B7889461700F9
:1005FC0083B0532B01D0FFF79DFFEFF3108A01213D
:10060C0081F31088621C53009B18DB0018006600F5
:10061C003619F6005E440193F36A58449846012B50
:10062C0040D0022B18D0002B4BD1B36A726A934284
:10063C004FD9013B9A1A974204D83A004946FFF722
:10064C00A9FFB8468AF31088404603B0F0BCBB46FD
:10065C00B246A946A046F0BD00239846756AB36A17
:10066C00346AAB4200D81B19013B5B1B641BBC42B8
:10067C0000D93C009C4200D91C00019B22005B4429
:10068C0058684946401904F093FF336A2D19EB1A48
:10069C005A1E93415B421D40A044A1443F1B75620E
:1006AC00DDD1CFE7B36A726A93420DD9013B9A1A36
:1006BC00B846974200D9904642464946FFF76AFF32
:1006CC00C0E700239846BDE7316A5B18013B9A1AD4
:1006DC00EEE7316A5B18013B9A1AACE780210020E7
:1006EC0010B5040082686368501C984207D82368D0
:1006FC0099540200E368A0600133E36063689A4296
:10070C0000D010BD21682069FFF766FFA3689842EE
:10071C0003D001235B42E360F3E70023A360F0E71F
:10072C00F0B54E4645465746DE46E0B583B0994691
:10073C000C9B07000E0015009846914200D27FE0FA
:10074C0008000124290002F033FE01348542F9D956
:10075C00CB46A14500D2A34601230D9A134000932A
:10076C000123134254D14346002B51D00D9B20241E
:10077C009B075FD4C3454BD201235B429C462100AF
:10078C003800E044FFF7ACFFFB68002B39DB434635
:10079C00002BEFD1012404E001235B429C466C4307
:1007AC00E1444B46012BF7D82100300002F000FE4B
:1007BC00854206D86C433000210002F0F9FD8542D9
:1007CC00F8D9204B9A463423994606E0290020009C
:1007DC0002F0EEFDAC420ED304003000210002F01A
:1007EC006DFE4B4650440E00C15C3800FFF778FF9D
:1007FC00FB68002BEADA009B002B02D04346002B4F
:10080C0015D103B0F0BCBB46B246A946A046F0BD1C
:10081C00FB68002BBEDAF4E701235B429C462021E7
:10082C003800E044FFF75CFFFB68002BE9DBD845A0
:10083C00F2D8E6E74B465C425C412401203499E750
:10084C00012485E75064000810B5080004F054FA40
:10085C00034B02000349180003F03AFF002010BDBF
:10086C00206900089464000810B5080004F044FAEC
:10087C00034B02000349180003F02AFF002010BDAF
:10088C0044690008A064000810B50400806F04F0EF
:10089C0079F9002801D1002010BD606F04F072F9C5
:1008AC000028F8D0200004F06DF9F5E7F8B5224DDA
:1008BC000400435D5A1CD2B24255C3181F488446EB
:1008CC0063441970072A07D92618082A0DD01C4B27
:1008DC00E05A0830824201D00020F8BD0022164BAD
:1008EC003000E25404F0F4F8F7E7300004F0CCF8F0
:1008FC0000280BD0300004F0F7F88023104F0100D3
:10090C00E0539B00984210D8625DE2E7615D0139CB
:10091C00C9B261550029DFD0002372780133DBB2F4
:10092C00327001369942F8D1D6E7064803F0D0FE72
:10093C000023E353D0E7C046D4140000CC120000CF
:10094C00D614000068690008112110B50F4A104830
:10095C00136A8B43136280220E4B92009A62DA3A2E
:10096C00FF3A9A610C4B0D495A6803F0B1FE0C4CDE
:10097C000122210074230B487431E25403F0A8FEC9
:10098C007422A35C002BFCD110BDC046002C01408E
:10099C008C6900080004005000ED00E0AC64000815
:1009AC00D80000209C690008024A936F01339367BA
:1009BC007047C046D800002010B5EFF305820249FD
:1009CC00024803F085FE10BDC0640008586800089A
:1009DC000121024A13698B4313617047002C0140BB
:1009EC00022210B51F4BD9680A4202D019690A427B
:1009FC0029D104221B4BD9680A4202D019690A4238
:100A0C0013D1184B18491A690A401A611A69072A36
:100A1C0000D810BD1969154803F05AFEEFF3058292
:100A2C001349144803F054FEF3E719691248914333
:100A3C00196101884A1C92B202801B6B9942E0D169
:100A4C00FFF714FDDDE719690B4891431961018823
:100A5C004A1C92B202801B6B9942CAD1FFF706FD69
:100A6C00C7E7C046002C0140E7FFFCFFD469000833
:100A7C00C06400085868000826010020102210B538
:100A8C000C4BD9680A420FD119690A4206D1EFF30F
:100A9C0005820949094803F01BFE10BD00210848D6
:100AAC001A6103F037FEF8E701210548DA6003F01C
:100ABC0031FEF2E700180240C064000858680008D4
:100ACC00E000002010B5EFF305820249024803F064
:100ADC00FFFD10BDC064000858680008102210B556
:100AEC001C4B19680A421AD1012219680A4211D109
:100AFC00802219689201114221D1042219680A42FC
:100B0C0022D1082219680A420ED01A60124803F04A
:100B1C00DFFD03E011481A6003F0DAFD10BD1A6026
:100B2C000F4803F0D5FDF9E719680E4803F0D0FD26
:100B3C00EFF305820C490D4803F0CAFDEEE71A608D
:100B4C000B4803F0C5FDE9E71A600A4803F0C0FD45
:100B5C00E4E7C04600240140246A0008F06900085C
:100B6C00E0690008306A0008C06400085868000892
:100B7C00FC690008186A0008022310B5124C2268A0
:100B8C00134216D108232268134207D122680F4959
:100B9C000F4803F09DFD0423636010BD0B49636097
:100BAC000C4803F095FD01210B4A13680B431360AD
:100BBC00F3E76360094B94211A005858C632062398
:100BCC007F3903F0E3FFE8E700000240CC64000843
:100BDC004C6A0008406A00080800024058000020D7
:100BEC0010B50F4BDA69920615D48022D9690A42E6
:100BFC000AD01B681A4206D00A4B34329858043A71
:100C0C009B580949984710BDEFF3058207490848DE
:100C1C0003F05EFDF7E7596A064803F07BFDF2E747
:100C2C00004400405800002028440040C0640008E4
:100C3C0058680008F0000020408902308010C0B2D3
:100C4C007047C04670B51125040009481300026AAC
:100C5C00AA4302628020074A80009062DA38FF388B
:100C6C0090610A000448210003F032FDFEE7C04603
:100C7C00002C0140000400505C6A000810B5014AC9
:100C8C00FFF7E0FF7C6A000810B5254B02001968DD
:100C9C00C9073FD4C1880139D962018906200139BD
:100CAC0019632049596219698143013004001961A3
:100CBC00117B0C40084223D00020012C00D010BD29
:100CCC000421528902329205120E9A63DA680A43A1
:100CDC00DA609423144C2521E058144A903B03F01D
:100CEC0055FF01210E4BE0345A6901200A435A6129
:100CFC00002222705A639A631A680A431A60DEE76C
:100D0C000221528902329205120E5A63DA680A43A2
:100D1C00DA60DEE7064A07480749FFF793FFC0464B
:100D2C00002C0140FFFF0000580000202400004070
:100D3C00846A0008A86A0008AF030000802302221E
:100D4C0010B5DB0519690A422ED01969344C914350
:100D5C0019612300D6331A88324B9A421BD82300D0
:100D6C00DA331B88072B16D92300D8331B88002BAA
:100D7C0011D02300DD331A78002A33D1012211005F
:100D8C00294B1B6819401A4215D08023DB05596A80
:100D9C00264803F09DFC220094232421E058D032F5
:100DAC00843B03F0F3FE05E0EFF305822049214874
:100DBC0003F08EFC10BD2300CE3319802300D833F2
:100DCC001B88012B09D123002200DA331B88D63271
:100DDC0002339B10DBB2143313802000D030FFF7AA
:100DEC0053FFE7E71A7828235A4323001249CC33E0
:100DFC001A80131C8A4211D8104A9BB293420BD30F
:100E0C000D4AD21A0E4B53438022120194460D4ABE
:100E1C0063441B0B5361B1E71300F1E70B1CEBE7C9
:100E2C005800002024F40000002C0140BC6A00088B
:100E3C00C064000858680008D3270000B204000002
:100E4C00490700000074004010B5024A02480349EB
:100E5C00FFF7F8FEDC6A0008A86A0008E702000049
:100E6C0010B572B6BFF34F8FBFF36F8F044A137870
:100E7C00FF2B02D00133137010BDFFF7E5FFC04606
:100E8C001C01002010B5024A02480349FFF7DAFEA4
:100E9C00046B0008A86A0008EE02000010B5084AAE
:100EAC001378002B0AD0013BDBB21370002B04D15A
:100EBC00BFF34F8FBFF36F8F62B610BDFFF7E2FF2A
:100ECC001C010020F0B5C646022200B5294B196959
:100EDC000A4235D01969284C914319617E329046EB
:100EEC00E16FA05872B6BFF34F8FBFF36F8F220024
:100EFC00C43215787C26FF2D39D06F1C17701F4A11
:100F0C005B6A975B9BB293539F4222D82300C433F6
:100F1C001D70002D04D1BFF34F8FBFF36F8F62B6DE
:100F2C0013007C335B68D26FDD0752082A435B08E1
:100F3C00884784210F4A6158536B5B18536305E053
:100F4C00EFF305820E490F4803F0C2FB80BCB84694
:100F5C00F0BD16007C36738801339BB27380002B76
:100F6C00D4D143464646D35801339351CEE7FFF7CD
:100F7C006BFFC0460048014058000020D8000020FC
:100F8C00C06400085868000870B572B6BFF34F8F84
:100F9C00BFF36F8F18487C240300C4331978FF29E2
:100FAC0027D04A1C1A70154A154B526A1D5B92B217
:100FBC001A5395420BD91C007C346288013292B2D0
:100FCC006280002A03D180241A5901321A51C4308C
:100FDC000170002904D1BFF34F8FBFF36F8F62B63E
:100FEC001A007C32D86F51684008CB071843490867
:100FFC0070BDFFF729FFC046580000200048014093
:10100C00D800002070B5040072B6BFF34F8FBFF349
:10101C006F8F2F4D2900C4310B78FF2B53D05A1CE6
:10102C000A708022D205506A2268143A904219DB69
:10103C000B70002B10D08023DB055A6A25492368DE
:10104C00254803F045FB94232200E8582421843BD7
:10105C0003F09CFD002070BDBFF34F8FBFF36F8F6B
:10106C0062B6E8E72B00D03307CC07C322681A60BE
:10107C002B00CE331A88194B1B6B01339A4218D0B4
:10108C002B000122E0331A70D023EA588023DB05B1
:10109C005A63C4352B78002B17D0013BDBB22B7075
:1010AC00002B04D1BFF34F8FBFF36F8F62B60120BB
:1010BC00D1E72A002B00D432D53310781B78184393
:1010CC00FFF714F8E0E7FFF7BFFEFFF7DBFEC046C3
:1010DC0058000020E8640008246B0008002C014034
:1010EC0030B585B00B00009205000022012102A84A
:1010FC0003F05AFC72B6BFF34F8FBFF36F8F194CCE
:10110C002200C4321378FF2B28D001331370164BF6
:10111C00082202A9E81803F031FB00280FD1C434CF
:10112C002378002B1CD0013BDBB22370002B04D1A5
:10113C00BFF34F8FBFF36F8F62B605B030BD0B4B53
:10114C00EA56012A04D00A490A4803F0C1FAE6E734
:10115C008021094A13680B431360E0E7FFF774FE24
:10116C00FFF790FE5800002064100000D51400001A
:10117C00FC640008386B000800440040F0B5C6461B
:10118C0006001D00100000B5374B82B0F25C0B005E
:10119C009401A4186400A418A40004343419009019
:1011AC0004212000019503F037FC08239846A8443D
:1011BC0072B6BFF34F8FBFF36F8F2C4D2F00C43718
:1011CC003B78FF2B4ED001333B70294B210042461C
:1011DC00F01803F0D3FA041E10D13B78002B3FD04B
:1011EC00013BDBB23B70002B04D1BFF34F8FBFF33D
:1011FC006F8F62B602B080BCB846F0BD1D4BF25684
:10120C00012A27D01C491D4803F062FAC4352B78FB
:10121C00002B25D0013BDBB22B70002B04D1BFF38C
:10122C004F8FBFF36F8F62B6A045E3D18324A40028
:10123C00FFF7AAFEA4460C49725C93019B185B0055
:10124C009B189B00F318634418600723013213406A
:10125C007354CFE780210A4A13680B431360D5E718
:10126C00FFF710FEFFF7F0FDD81400005800002027
:10127C0064100000D5140000FC640008386B0008F2
:10128C0000440040F0B583B000AF1300FE1D327077
:10129C0005000C00D2B2002B27D10121042003F051
:1012AC00C5FD03006A461333DB08DB00D31A5A88EA
:1012BC009D469A80002221885A801A80A288D98063
:1012CC0001215A8119813200012303A8033103F053
:1012DC00C7FDD4220C30520083B20121A8586A46B3
:1012EC00FFF74CFFBD4603B0F0BD8B8802480349A5
:1012FC0003F0EEF9D1E7C046546B00081065000806
:10130C00F8B5DE4657464E464546E0B51D00282347
:10131C0000AFFB18914604CB06001B8888462800BA
:10132C00190093469A4603F081FD6B461330C408AE
:10133C00E4001B1B5A889D469A8000225A801A8012
:10134C004A46DA8005221A81424629005A8103A8AE
:10135C0053465A4603F084FDD4220C30520083B21B
:10136C000121B0586A46FFF709FFBD46F0BCBB46E9
:10137C00B246A946A046F8BD0FB430B597B01AA92D
:10138C0020C92800019103F099F92A00040050218A
:10139C00019B02A804F09EF8002807DD064A0130E4
:1013AC0083B20021106A02AAFFF7E8FE200017B0F2
:1013BC0030BC08BC04B018475801002070B50500BB
:1013CC0082B008000C0003F097FCC31FDBB20200D4
:1013DC000D2B03D827499B00CB589F4626492748FD
:1013EC0003F076F902B070BD200003F089FC0468AC
:1013FC002348210003F06CF9022CF3D1882300223E
:10140C00EA54EFE7002300221D21A86F03F0BEFB76
:10141C00E8E7200003F074FC03001A690068043349
:10142C0000920ECB03F054F9DCE7200003F068FCCB
:10143C00002341680068134A02F05AF904003C2169
:10144C00200002F03BF820000E003C2101F0B0FF20
:10145C003C2102F033F80D00E1212000090101F0DC
:10146C00A7FF094C010033002A002000FFF784FF7E
:10147C00B8E7C046A45E000824650008986B000815
:10148C00846B000840420F006C6B000830B50322DF
:10149C0001258024104B83B00021C254C3180132A3
:1014AC0008200095FEF75CFEE4050C48FFF764FF8E
:1014BC00626A0B490B4803F00BF90B4B1A00D5333E
:1014CC00D43210781B781843FEF710FE23682B4398
:1014DC00236003B030BDC04609030000A86B0008B0
:1014EC0034650008BC6B000858000020010030B5C2
:1014FC003039CBB283B0472B03D8524A9B00D35818
:10150C009F46514B01001800FFF736FF03B030BD6A
:10151C0080258B00C9184D4B01AA49004C4CD86949
:10152C0011700123202103F031FB6369AD002B42C4
:10153C00ECD1484803F0CCF8A561E7E7434B01AA8E
:10154C00D869C2239B00C35C023B191C642B13DCBF
:10155C000BB20A2B00DA0A2111700123202103F0AF
:10156C0015FBD3E7394B01AAD869C2239B00C35C96
:10157C000233191C642BEBDD6421E9E78022364928
:10158C00D2034869030413404022824313438B6106
:10159C00BCE72E4B00221E21D869002303F0F6FA7B
:1015AC00B4E72E48FFF7E8FEB0E7284C00230022F2
:1015BC000C21A06903F0EAFA002300220E21A06995
:1015CC0003F0E4FAA2E726492648FFF7D5FE9DE78B
:1015DC001E4B00221B21D869002303F0D7FA95E794
:1015EC002149224803F074F8214A224993680B40A0
:1015FC0004210B43936089E78025154CAD0063698A
:10160C002B421AD16A4600231371104B2021D86942
:10161C0001AA012303F0BAFA78E700210B4B1A6AEE
:10162C00154BD15472E702230193084B072198699B
:10163C0001AA042303F0AAFA68E7104803F048F85B
:10164C00A562DFE7DC5E0008506C00085801002042
:10165C0000040050186C000800080050CC6B000807
:10166C00306C0008406C0008506500082C6C0008B9
:10167C0000240140E8FFFF7FD9140000046C00082F
:10168C00F0B557464E46DE464546E0B583B00600FB
:10169C0002AF08000C0003F02FFA002828D020001D
:1016AC0003F016FA05002000012D00D173E003F0C1
:1016BC0013FA8046200003F007FA8246032D1CD053
:1016CC00200003F011FA8146042D29D0280003F0E4
:1016DC005DF9364C01004B464246200002F0F8FF03
:1016EC00BD4601B0F0BCBB46B246A946A046F0BD13
:1016FC002F49304802F0ECFFF2E741462E4802F049
:10170C00E7FF524641463000FFF7EAFC51464B1EBC
:10171C009941002200233068163103F037FADFE7D5
:10172C00200003F0D1F98146200003F0E3F9050015
:10173C00200003F0D9F94A460300002A30D10228D0
:10174C0006D12A782F2A03D16878FFF7CFFE1CE048
:10175C001A0069460C32D208D2008A1AEB4695461A
:10176C0002AA91465C1D21004846144A009503F0DC
:10177C0051FE002808DD844206D9114A83B20021AB
:10178C00106A4A46FFF7FAFCDD46524641463000E5
:10179C00FFF7A6FCA4E703F0A3F9FFF7F5FB9FE71F
:1017AC002A001821306803F0F1F9EEE7A46C000868
:1017BC0060650008686C0008786C0008986C00087C
:1017CC005801002070B5134D0400435D002B0ED161
:1017DC000A2905D0C9B2FFF769F8032812D070BDE9
:1017EC0001220339FFF77CFC01236355F7E7C9B2EB
:1017FC00FFF75CF80028F2D0074B2000E118FFF748
:10180C003FFFECE7044B2000E118FFF739FF012301
:10181C006355E4E7D9140000CC120000F8B5D026CB
:10182C007600835904009847051E15D0A75903F07C
:10183C0045FA01002000B847002805D04E210A4A7D
:10184C000A48FF31FFF7FEF9A55103F029FA010010
:10185C002000A847002800D1F8BDA821024A03485F
:10186C004900FFF7EFF9C046D46C0008E06C0008A3
:10187C00F8B5DC26835904009847051E15D0A759E6
:10188C0003F01CFA01002000B847002805D0B42151
:10189C00094A0A48FF31FFF7D5F9A55103F000FAC0
:1018AC0001002000A847002800D1F8BDDB21024A26
:1018BC0002484900FFF7C6F9D46C0008F46C000824
:1018CC00F0B5C64600B58A8888B005000C0002AF9A
:1018DC000A2A00D9BEE067499300CB589F46D22311
:1018EC005B00C258CC3BD0583900248803F0DCFB99
:1018FC0004231022009321003B000A20FEF730FC49
:10190C00BD4606B080BCB846F0BD26885A4C2000B7
:10191C0001F03CFD80B201900C2332000221280022
:10192C000094FFF7EDFCEBE7012201000320FEF72A
:10193C005BFC5249524802F0CBFE524A5249936822
:10194C000B4004210B439360DAE7FFF71DFB0823E0
:10195C00386079602288217928000193009704234C
:10196C00FFF7CEFCCCE7494B05213B60484B3800D8
:10197C007B60484BE846BB60474BFB60474B3B6189
:10198C0003F0ECF96A460C3083B20733DB08DB005A
:10199C00D31A9D4602AE73883900B380002373803E
:1019AC0033802388A288F3800523338109336B4469
:1019BC009A8005A8052203F0F1F9D4220C305200CC
:1019CC0083B20121A8583200FFF7D8FBC54697E730
:1019DC00D2235B00C258C43BD358002B44D01C68A4
:1019EC00200001F0D3FC80B2009023000C220021D7
:1019FC000620FEF7B5FB83E7C222D2239200944661
:101A0C0001225B00C358002100920720634403327B
:101A1C00FEF7A6FB74E7D223214A5B009446012211
:101A2C00C35800210092082063440332FEF798FB50
:101A3C0066E726880400B134FF34200001F0A6FCD0
:101A4C0080B201900C233200092128000094FFF78A
:101A5C0057FC55E71349144802F03AFE8622210040
:101A6C002800FFF70FFC4BE7A721104A1048FFF79F
:101A7C00E9F8C046FC5F0008306C000850650008AF
:101A8C002C6C000800240140E8FFFF7F046D000867
:101A9C00106D0008186D0008246D00082C6D0008EE
:101AAC0009030000746500085C6D0008406D0008B7
:101ABC004C6D0008F8B5050008000C0003F01CF98B
:101ACC00162834D009D801283BD0022825D1A649A4
:101ADC00A64802F0FDFD0020F8BD18281DD12000FD
:101AEC0003F00EF9027A0400861D062A49D02DD87F
:101AFC00022A00D1E0E0032A4DD1B388C1889C4A68
:101B0C009C4802F0E5FD290030790022FEF76CFBC1
:101B1C0031002800FFF7D4FEDDE7200003F0ECF8DD
:101B2C00954B02009049180002F0D2FDD3E7D42364
:101B3C005B00E858833B0021904AFF3BFFF71EFBFC
:101B4C00C9E789498E4802F0C3FDC4E7082A22D1AF
:101B5C008C4AC188B388874802F0BAFDB2880A2A39
:101B6C0000D1C3E00C2A00D1B1E0062A1DD0864971
:101B7C00864802F0ADFD862231002800FFF782FB7B
:101B8C00A9E7B288931F9BB2062B00D9BDE0804A0F
:101B9C009B00D3589F467F497F4802F099FD8122D4
:101BAC0031002800FFF76EFB95E7B3790C2B00D1C1
:101BBC00ADE0002231002800FFF764FB8BE7B3791E
:101BCC00052B19D1837B427B1B021343E1221F1C83
:101BDC001201934200D9171CBFB239006F4802F0B2
:101BEC0077FD7A01D21B93019B1AD622DB00DB19FD
:101BFC009B015200AB50B379102BDAD1D2212200C9
:101C0C00490068587D39F3790E32FF3902F0BEFF76
:101C1C00CFE7B379102BCCD1D22102004900685800
:101C2C008439F3790E32FF3902F0B0FFC1E7B37992
:101C3C000C2BBED1F3791F1C172B00D917272100B1
:101C4C002C00B134FF34BFB23A0020000E3103F047
:101C5C00AFFC0023EF19B137FF3721003B70504820
:101C6C0002F036FDA5E7B3790C2BA2D19933F279AA
:101C7C00FF33EF580E34042A66D0052A14D01C21E9
:101C8C0000230022380002F081FF92E7B379042B85
:101C9C008FD10200A133FF33E858A43B20210D3231
:101CAC00FF3B02F073FF84E73E49200003F01EFC6B
:101CBC001A210028E3D1E3E7C188B3883A4A2D48BA
:101CCC0002F006FD31002800FFF7FAFD03E7B379B7
:101CDC00092B30D0082B00D06BE79D33FF33E8582D
:101CEC00002200232A2102F051FF62E7B379092B6D
:101CFC0018D0082B00D05CE79D33FF33E858002246
:101D0C000023232102F042FF53E7284930E7D22178
:101D1C002200490068588639F3790E32FF3902F0F7
:101D2C0035FF46E79C33FF33E8580022002322217D
:101D3C0002F02CFF3DE79C33FF33E85800220023D0
:101D4C00292102F023FF34E71949200003F0CEFBD0
:101D5C001B21002894D004222000164903F0C6FB56
:101D6C0000288CD119218BE788650008946D000838
:101D7C00306E0008B06D00084469000894650008D6
:101D8C007C6D0008406E0008D06500085C6D000892
:101D9C0028600008E4650008486E0008046E00081E
:101DAC00EC6D0008E46D0008A86D0008BC65000827
:101DBC00D46D0008DC6D000830B505000C0083B054
:101DCC00002925D009681548FFF7D6FA2B00002109
:101DDC00E033D9721C605C60A2892800DA81002291
:101DEC0019811A731A741031FEF7AEFAE023EB580E
:101DFC00002B0DD01C68200001F0C8FA80B20090B6
:101E0C0023000C2200210620FEF7AAF903B030BDF6
:101E1C00A721034A0348FEF715FFC046686E000869
:101E2C00406D00084C6D0008F0B5DE46454657463F
:101E3C004E46E0B505008DB008000C0002F05CFFCA
:101E4C001538C0B213281BD87B4A8300D3589F4641
:101E5C00E023EB587949002B07D05B1A1B11013397
:101E6C009BB2052B01D01B01C9182800FFF7A4FF5A
:101E7C0073480DB0F0BCBB46B246A946A046F0BDB7
:101E8C00200002F039FF6F4B02006F49180002F07E
:101E9C001FFC0020EDE7200002F032FF81462000FD
:101EAC0002F02CFF694B80461E00776A24363800FE
:101EBC009A46002401F06AFA804509D001341036A4
:101ECC00052CD5D03768380001F060FA8045F5D183
:101EDC0042463900484603F009FB0028EED1514632
:101EEC002401243128000919FFF766FFC0E7200000
:101EFC0002F006FF01782800FEF726FA0020B8E76A
:101F0C00200002F0FDFE0600200002F0F7FE272163
:101F1C006A4607000023D8245218137031001300AE
:101F2C0028593A0003F0CEF8002858D028590AA9AD
:101F3C0003F0BAF804230A200093102200210AAB04
:101F4C00FEF70EF9002094E7200002F0D9FE0600FF
:101F5C00200002F0D3FE0100202831D020223C4882
:101F6C0002F0B6FB002084E73A4802F0B1FB0020F7
:101F7C007FE7200002F0C4FE374A81880AAC514347
:101F8C00890B2180438809045A43920B6280008894
:101F9C001204C3011B181B011B1A9B0AA3801B04F0
:101FAC001B0C120C090C2D48FFF7E6F90623032035
:101FBC000093102223000021FEF7D2F8002058E7EE
:101FCC002B00F83316CE16C316CE16C306CE06C398
:101FDC00FEF7DAFFF83528626962002049E727220C
:101FEC006B469B1819781E4802F072FB707AB47815
:101FFC008446708900258046307B71788146707BE1
:10200C0072688246F078337A834630340E2F01D9C9
:10201C000E25755706955D460595554604954D4616
:10202C0001940395644645460E480295009402F0CF
:10203C004FFB00201DE7C04644600008F465000813
:10204C00552200082069000844660008D065000885
:10205C00306F0008586F00084DCE00007C6E0008F1
:10206C00A46E0008C06E0008F0B5C64600B50400AA
:10207C0088B008000D0002F03FFE272818D8654BE9
:10208C0080001B589F46D82304AD2900E05803F06C
:10209C0071F80026002800D08AE0AB7BDB0700D566
:1020AC00AAE05D4BE654002008B080BCB846F0BDF9
:1020BC0029002000FFF7B8FEF6E7584DE42329006D
:1020CC00E5501031564802F003FB01260322554B14
:1020DC000021E2540820E31801320096FEF740F884
:1020EC00D82304A9E05803F045F80023002864D154
:1020FC00494AA354D7E7494D80262900F605726A50
:10210C003831494802F0E4FA0122336893433360D2
:10211C00464B3F329A62464B193A9A61D823E058A3
:10212C0002F09CFF29004348103102F0D1FABAE7C3
:10213C003C4BE35C022BB6D12000FFF7A7F9B2E7CA
:10214C00384D635D032BAED18026F605726A3A4991
:10215C00354802F0BDFA0122402133680820934330
:10216C003360324B9962324B193999610223002149
:10217C006355009263190332FDF7F2FF2F48FFF706
:10218C00FBF890E7274D635D022BD5D0032B00D0D5
:10219C0089E7D9E7280002F0B3FDFEF725F92848B6
:1021AC0082E71D4BE35C002B00D07CE724487BE7E7
:1021BC002800FEF727FF06006FE76B46187D5B7D56
:1021CC001843FDF793FF28235B4298462900049F90
:1021DC002031B84442461B4802F07AFA802342462A
:1021EC00DB05293F5F635A621A6804A832431A6000
:1021FC00FEF708FF03007BE7D82303A9E05802F0A1
:10220C0053FF04231022009300210A2003ABFDF797
:10221C00A7FF46E7946000080A0300005066000818
:10222C006C6F000809030000BC6B0008000800502C
:10223C0000040050886F0008886600089C6F000836
:10224C0055220008806F000830B5040083B00800E8
:10225C000D0002F051FD2A2814D8264B80001B5883
:10226C009F462549254802F033FA0122244B0021D0
:10227C00E25408200092E3180332FDF771FF0020AE
:10228C0003B030BD29002000FFF7CEFDF8E7E023B6
:10229C00E4220021E358A350E434E1719A89A1802F
:1022AC0062810022227222739A7B002AE7D019687D
:1022BC001448FFF761F81448E2E7E423E358002BD5
:1022CC0013D019681148FFF757F8D8E70A49104896
:1022DC0002F0FEF9D3E7D823E05802F0CFFE002835
:1022EC00CDD10C48CCE70C48CAE7A7210B4A0C48C7
:1022FC00FEF7A8FC34610008A06600086C6F0008AB
:10230C0009030000AC6F00084D250008BC6F0008E5
:10231C00886F0008752000089D2A0008406D000891
:10232C004C6D000830B5050083B008000C0002F0BD
:10233C00E3FC272803D8274B80001B589F4621001D
:10234C002800FFF771FD03B030BD2349234802F08C
:10235C00BFF90222224B0021EA54013A00920820D4
:10236C00EB180332FDF7FCFE0020ECE71A491D4880
:10237C0002F0AEF90020E6E7E423EB58002B23D063
:10238C0019681948FEF7F8FF1848DCE7D823E85815
:10239C0002F074FE0028E7D11548D4E7EE22E423BE
:1023AC00AA5AEB58002A07D1002B0DD019681148F6
:1023BC00FEF7E2FF1048C6E7002B05D019680F485E
:1023CC00FEF7DAFF0020BEE7A7210D4A0D48FEF705
:1023DC0039FCC046E0610008AC6600086C6F000870
:1023EC0009030000886F0008CC6F00084D25000819
:1023FC0075200008BC6F000855220008DC6F00082F
:10240C00406D00084C6D0008F0B5DE4657464E4650
:10241C004546E0B541898BB0002907D100200BB0AF
:10242C00F0BCBB46B246A946A046F0BD057B04688D
:10243C0086880379027A002D37D1A17B5B008A1A3A
:10244C00013A95B2012202736268D118D65C4F78BA
:10245C0037423FD1C82263899200984683799B000A
:10246C009A4693423BD85246052492B23440914648
:10247C006242544106AAE4B2934614732B4A904527
:10248C003ED8072B3CD9002D3AD030003843FDF70D
:10249C002DFE5B464246DA80524658461E715F71ED
:1024AC001D815A81FEF7F0FBB9E701332589DBB2B8
:1024BC009D4223D05B000132D5B20572A27B013A5A
:1024CC0095420ED0002202736268D118D65C4F7808
:1024DC003742BFD04021164A1648FEF7B3FB92464E
:1024EC00C1E700220136B6B2027286802789B74254
:1024FC00E8D10139828041810022E4E70023DAE748
:10250C000D4802F0E5F84B469B0804935B465B7B59
:10251C003034039343463200029306993B000195F5
:10252C000094064802F0D4F878E7C04624F4000082
:10253C00EC6F0008087000081C700008BC680008EC
:10254C00F0B5D6464F464646C0B5050082B00800E9
:10255C000C0002F0D1FB27281AD8444A80001358EB
:10256C009F46E023EB584249002B07D05B1A1B1106
:10257C0001339BB2052B01D01B01C9182800FFF7B2
:10258C001BFC002002B0E0BCBA46B146A846F0BD28
:10259C0021002800FFF748FCF4E73648F2E73649FB
:1025AC00364802F095F8E023EB58002B59D01C6804
:1025BC00200000F0EBFE80B2230000900C220021E2
:1025CC000620FDF7CDFD03222D4B0021EA54023AE3
:1025DC0000920820EB180332FDF7C2FD2800E4300E
:1025EC00FFF712FFCDE72449264802F071F8C8E73F
:1025FC00200002F085FB8146200002F07FFB224B7D
:10260C0080461E00776A243638009A46002400F073
:10261C00BDFE804509D001341036052CB1D0376889
:10262C00380000F0B3FE8045F5D1424639004846EB
:10263C0002F05CFF0028EED1514624012431091927
:10264C009CE72800E430FFF7DFFE002899D1E42353
:10265C00EB58002B05D019680C48FEF78DFE0C4882
:10266C0090E7A7210B4A0C48FEF7ECFA80620008B1
:10267C00F465000831230008B86600086C6F000888
:10268C0009030000886F0008D0650008BC6F0008C3
:10269C0055220008406D00084C6D0008124B70B5B7
:1026AC00C618040030000D0002F060F801280CD0B0
:1026BC0001222900300002F0DFF8012800D170BDA2
:1026CC00D3210A4A0A48FEF7BDFA0A4BE256012A00
:1026DC0004D00949094801F0FBFFE9E78021084AC9
:1026EC0013688B431360E3E764100000307000083C
:1026FC003C700008D5140000FC640008386B00081E
:10270C0000440040F0B5454657464E46DE46E0B51F
:10271C0083B016000CAA1278478A904680220400D7
:10272C000D00D200974217D8934210D8018A9142DB
:10273C0017D879434B439A46C023DB039A4515D2ED
:10274C0003B0F0BCBB46B246A946A046F0BD4C2136
:10275C00314A3248FEF776FA4B21314A2F48FEF7C0
:10276C0071FA4D212F4A2D48FEF76CFAC0215046C4
:10277C00890300F01DFEC021381A400883B20903FA
:10278C005046994600F014FE2A239C4680B20090D5
:10279C006046E35C2A68591C1B01E318215419009C
:1027AC00DA62002230310A704E7049460098598620
:1027BC000321D886404699868A46353158548B4633
:1027CC0001315A5401315A54A38ADF192B68FF186E
:1027DC0063462F60E35C0193581C6346E054019BF5
:1027EC0000981B01E318DF621F0030377E704E46E5
:1027FC003A705E86564647469E860126D8867E40AF
:10280C0039205F46DE551A545A54E38A628AD2182C
:10281C002B689B182B6093E7A47000087C70000851
:10282C004C7000088C70000829232A22F0B5C35C78
:10283C00825C89B0040004AD9A4200D9DDE0884E78
:10284C0080253100ED056A6A3831864801F040FF79
:10285C0001222B6893432B60834B3F329A62834B4C
:10286C00193A9A6172B6BFF34F8FBFF36F8F8048DE
:10287C007C250300C4331978FF2900D1EEE04A1CF3
:10288C001A707C4B7C4A5B6A575B9BB253539F42DA
:10289C0000D9C2E0C4300170002904D1BFF34F8FBE
:1028AC00BFF36F8F62B613007C335968D56FC807BE
:1028BC006A0802434B08206A616A121A8B411100A4
:1028CC00002B00D0B9E06D4B994200D9B5E0F02255
:1028DC002000002152002C3002F016FE2823E55C6B
:1028EC0029220135EDB2E5540023A3540132A3543F
:1028FC00627F039351424A4123881540002B05D037
:10290C000B222000009503A9FFF7FCFE6388002B27
:10291C0005D007222000009503A9FFF7F3FEA3883A
:10292C00002B05D00E222000009503A9FFF7EAFE2C
:10293C00E388002B05D00D222000009503A9FFF79A
:10294C00E1FE2389002B05D003222000009503A96A
:10295C00FFF7D8FE6389002B05D0062220000095D6
:10296C0003A9FFF7CFFEA389002B05D00C22200072
:10297C00009503A9FFF7C6FEE389002B05D00922B9
:10298C002000009503A9FFF7BDFE3D49039A8C4634
:10299C00A36962449A424ED300212A2004ADA98037
:1029AC00235C0492374AE98006920022AA732A001B
:1029BC005F1C1B01E3182754A9812C3383CA83C3E2
:1029CC001268C8271A603023E05C0133E35C7F4255
:1029DC001843FDF78BFB31003A0020312A4801F0F7
:1029EC0077FE8023C9220121DB0552425A635F62C4
:1029FC001A680A431A602923E35C2922591C1B011B
:102A0C00A154E4182B002C3407CC07C322682800EF
:102A1C001A60FEF7F7FA09B0F0BD15007C356B882B
:102A2C0001339BB26B80002B00D033E780255359C8
:102A3C00013353512EE71A00AEE7310013487831B9
:102A4C0001F046FE842200219200200002F05CFD81
:102A5C00FEF79AFA206261620020DCE7FEF7F4F9D7
:102A6C0050660008BC6B00080008005000040050C1
:102A7C005800002000480140D800002040420F00C0
:102A8C008813000001000800806F0008C070000867
:102A9C00F0B5040083B008000D0002F02DF92A28CF
:102AAC0000D96AE04E4A800013589F464D4DE423EE
:102ABC002A0029000C32E2501C314B4801F008FE70
:102ACC0003224A4B0021E25401230093474B082078
:102ADC00E31826000132FDF743FB8422F83600216F
:102AEC003000920002F010FD72B6BFF34F8FBFF3AF
:102AFC006F8F3F487C270300C4331978FF2900D11E
:102B0C006CE04A1C1A703B4BDA5B94463A4A526AA8
:102B1C0092B2DA5394450BD91F007C377A88013274
:102B2C0092B27A80002A03D18027DA590132DA5125
:102B3C00C4300170002904D1BFF34F8FBFF36F8FE6
:102B4C0062B61A007C325268DB6FD1075B080B430C
:102B5C0029005208336272622831284801F0B8FD0E
:102B6C00230000222333FF331A703000FFF75CFE82
:102B7C00234BE054002003B0F0BD29002000FFF7E8
:102B8C0053F9F8E71E4BE35C002BF3D11D48F2E739
:102B9C0080241D48E40501F09BFD626A1B491C481A
:102BAC0001F096FD012223681A49934323601A4BC6
:102BBC003F329A62194B193A9A61194801F088FD13
:102BCC00D8E7280002F09CF8FDF70EFCD2E72000B5
:102BDC00F830FFF729FE0A4BE054CBE7FEF734F947
:102BEC0020630008D06600086C6F00080903000021
:102BFC0058000020D8000020004801402C6C000830
:102C0C000A03000055220008E070000888660008DE
:102C1C00BC6B0008EC660008000800500004005073
:102C2C00886F00087047C046F0B54E46DE465746E2
:102C3C004546E0B583B0060014000091EFF3108A0E
:102C4C00012181F31088354B98461B78532B01D00A
:102C5C00FDF770FC730099469B19DB0043441A6F17
:102C6C00DF6E9346BA4224D82500BF1ABC420CD85A
:102C7C00002D0CD100258AF31088280003B0F0BC7D
:102C8C00BB46B246A946A046F0BD3D1EF2D04B460F
:102C9C009B19DB004344596E2A005944009802F0FA
:102CAC0087FCAB4433005A464B44DB0043441A6761
:102CBC00E1E79B6E25009B1A9C4229D84B469B1939
:102CCC00DB004344596E2A0059440098019302F0EA
:102CDC006FFC019BAB449B6E641B9B451AD05B46FF
:102CEC00FF1ABC4204D8002C04D1002DDAD1C1E764
:102CFC003C1EFAD0009B220058194B469B19DB0056
:102D0C004344596E2D19594402F052FCA344ECE78C
:102D1C001D00D3E700239B46E3E7C046802100203B
:102D2C0000B583B06B4601220020D91DFFF77CFF54
:102D3C00012803D16B46D87903B000BD0120404275
:102D4C00FAE7C04610B5FDF7F5FB10BDF0B55746D8
:102D5C00DE464E4645460023E0B50C000027914662
:102D6C008046A1B09A4640339B4610AB0393A84BC8
:102D7C000590079323780134002B10D0252B2CD0F1
:102D8C007D1CAB451BD3039AD35501239C46E244CF
:102D9C00AB4517D023782F000134002BEED15346CE
:102DAC004546002B03D0002F00D0DBE1BA4450463F
:102DBC0021B0F0BCBB46B246A946A046F0BD5F456B
:102DCC00D8D15D462A0003990598FDF705FCA84269
:102DDC006BD001235B429A46E9E723780026022553
:102DEC0008200422611C2D2B0BD02D2B0DD8232B4E
:102DFC0010D02B2B3BD10C0016432378611C2D2BB0
:102E0C00F3D101230C001E43F7E7302B05D10C0046
:102E1C002E43F2E70C000643EFE71A00303A002588
:102E2C00092A01D90BE00131AA0055196D00ED18E2
:102E3C000B780C001A00303A303D092AF3D9611C8A
:102E4C002E2B34D000222378069204920C000422FC
:102E5C001900914368290CD0252B13D0583BDBB2B9
:102E6C00202B00D986E7079A9B00D3589F46002554
:102E7C00E8E70421237801341A008A43682AF9D040
:102E8C00252BEBD17A1C934505D30399CB55012304
:102E9C009C461700E244BB4500D06BE75A460399A9
:102EAC000598FDF799FB834593D1002762E763787A
:102EBC002A2B0BD14B4649461B681A1D0A6001226E
:102ECC001B6804920693E11CA378BFE71A00303A02
:102EDC000C00092A00D9CEE100218A0052185200B8
:102EEC000134D118237830391A00303A092AF4D930
:102EFC00012206910492611CA8E74B4649461B68C7
:102F0C000D971A1D0A601968039B10220B935B46E0
:102F1C000C9353460E93059B01960F93069B0095BD
:102F2C000BA8FDF7FDFB0B9B0D9F03930C9B9B4686
:102F3C000E9B9A460F9B05935346002B00DB19E71B
:102F4C0035E74B4649461A68131D0B607B1C5B45E5
:102F5C0006D812680399CA55012294461F00E24410
:102F6C005F4500D006E73A0003990598FDF734FB5E
:102F7C00874200D02DE70027FCE64B4649461B68EC
:102F8C001A1D0A601D680F2D03D92B001B090F2B6E
:102F9C00FCD80126082201E0013A3601012AFBD1B6
:102FAC003100280000F004FA0F2806D93601310050
:102FBC00280000F0FDF90F28F8D8164B04932300D5
:102FCC005C469B4604E033090F2E00D8FAE01E0045
:102FDC002800310000F072FA7B1C0D009C420AD3D1
:102FEC00049A0399944634226044825CCA550122A7
:102FFC0094461F00E244BC42E5D122000399059897
:10300C00FDF7EAFAA04200D0E3E60027DBE7C04672
:10301C00CC630008506400084B4649461B681A1DD7
:10302C000A601B681A000493DB17D0185840012360
:10303C00092800DC24E108961E0009950A210500E8
:10304C00013600F06BFA632DF8DC3200099D089E06
:10305C00069B0893934200D28AE0002D00D191E0A8
:10306C000223049A3340002A00DAAFE0720700D53D
:10307C00D4E0002B00D105E1069B002B00D001E130
:10308C0003333340022B00D089E023005C469B467F
:10309C0002E0002D00D11DE1089BAB4200D319E1E9
:1030AC007B1C013D9C4206D33021039AD155012251
:1030BC0094461F00E244BC42EBD1220003990598D0
:1030CC00FDF78AFAA04200D083E60027E1E74B46E1
:1030DC0049461B680D971A1D0A601968039B0A2242
:1030EC000B935B460C9353460E93059B01960F93E3
:1030FC000095069B14E74B4649461B681A1D0A604F
:10310C001D68002D5AD03A00069F0137EF193B007D
:10311C005F469B462B780135002B13D00499002970
:10312C0001D05D450ED0561CB7420ED303998B547B
:10313C0001239C46E244B7420AD02B783200013579
:10314C00002BEBD1BB461700F6E69742E2D13E00CE
:10315C00320003990598FDF73FFAB04200D038E6EB
:10316C000022D7E73A00280010A9FDF735FA1DE632
:10317C000892002D06D073E75646BA461F005B46F0
:10318C00A3461C00049B002B60DB73074ED4032367
:10319C003340022B03D1069B002B00D196E0039BFE
:1031AC000A220B935B460C9353460E93059B049992
:1031BC000F930D97069B01960095B1E600234C4D9D
:1031CC000493A0E75B46A3461C00B5E6013D002B2B
:1031DC0039D1F30759D4002D38D022003B005C467E
:1031EC0057469346B246089E01E0002DC4D0AE422D
:1031FC00C2D25A1C013D944204D3202003990137BA
:10320C00C85413009C42F0D1220003990598FDF795
:10321C00E3F9A04200D0DCE50023E6E7013D002BFA
:10322C0002D0069B002B01D0F3075DD57B1C9B4580
:10323C003FD32B220399CA552A3A9446E2449B4524
:10324C004CD01F00A3E7069B002BC2D1049B390076
:10325C005B4201370493BB451FD20F008B4596D1BF
:10326C000F000A0005980399FDF7B6F9B84200D093
:10327C00AFE500278BE70022013106920492E5E5C9
:10328C001A00E5E6F307A8D589E7049B5B42049393
:10329C007B1C9B4524D339001F002D23039A5354C8
:1032AC002C3B9C46E244BB4500D070E75B461900C2
:1032BC00D6E7BB4500D06AE73A0003990598FDF7BD
:1032CC008BF9B84200D084E5002760E7002D00D1CF
:1032DC0065E7DAE65B46A3461C0060E75F46EBE772
:1032EC005F4500D05BE7E1E7002D00D075E79DE777
:1032FC00F0700008102070474068704783780720F2
:10330C001840704703005A6808000A601A7A0A715C
:10331C005A7A4A71072299780A40FA2102731A7B69
:10332C004A43C280DA78920042815A8902815B7BDF
:10333C0043737047030010000E2904D80023137048
:10334C000023437070470E229A5602700F29F7D053
:10335C00DB7B5BB2F5E7C046002243898A569B189B
:10336C00C822920093420BDD1300012243818A563E
:10337C00C3889B18044A934200DD1300C380704736
:10338C00082BF2DA0823F0E724F400000023C25CD7
:10339C000133002AFBD1581E7047000003B471465C
:1033AC00490840004900095E49008E4403BC70473F
:1033BC00002243088B4274D303098B425FD3030A68
:1033CC008B4244D3030B8B4228D3030C8B420DD37B
:1033DC00FF22090212BA030C8B4202D31212090209
:1033EC0065D0030B8B4219D300E0090AC30B8B4247
:1033FC0001D3CB03C01A5241830B8B4201D38B03F5
:10340C00C01A5241430B8B4201D34B03C01A524199
:10341C00030B8B4201D30B03C01A5241C30A8B42DC
:10342C0001D3CB02C01A5241830A8B4201D38B02C7
:10343C00C01A5241430A8B4201D34B02C01A52416B
:10344C00030A8B4201D30B02C01A5241CDD2C309DD
:10345C008B4201D3CB01C01A524183098B4201D359
:10346C008B01C01A524143098B4201D34B01C01A44
:10347C00524103098B4201D30B01C01A5241C308BC
:10348C008B4201D3CB00C01A524183088B4201D32B
:10349C008B00C01A524143088B4201D34B00C01A17
:1034AC005241411A00D20146524110467047FFE783
:1034BC0001B5002000F006F802BDC0460029F7D087
:1034CC0076E770477047C04610B5002903D100F06D
:1034DC0007F8203002E0080000F002F810BDC046EA
:1034EC001C2101231B04984201D3000C10391B0A28
:1034FC00984201D3000A08391B09984201D30009EC
:10350C00043902A2105C40187047C0460403020242
:10351C0001010101000000000000000003460B4304
:10352C007FD4002243088B4274D303098B425FD3B0
:10353C00030A8B4244D3030B8B4228D3030C8B42DC
:10354C000DD3FF22090212BA030C8B4202D31212C2
:10355C00090265D0030B8B4219D300E0090AC30B97
:10356C008B4201D3CB03C01A5241830B8B4201D344
:10357C008B03C01A5241430B8B4201D34B03C01A2D
:10358C005241030B8B4201D30B03C01A5241C30AA5
:10359C008B4201D3CB02C01A5241830A8B4201D316
:1035AC008B02C01A5241430A8B4201D34B02C01A00
:1035BC005241030A8B4201D30B02C01A5241CDD2A5
:1035CC00C3098B4201D3CB01C01A524183098B42F0
:1035DC0001D38B01C01A524143098B4201D34B01D9
:1035EC00C01A524103098B4201D30B01C01A52413C
:1035FC00C3088B4201D3CB00C01A524183088B42C3
:10360C0001D38B00C01A524143088B4201D34B00AB
:10361C00C01A5241411A00D201465241104670471D
:10362C005DE0CA0F00D04942031000D34042534022
:10363C0000229C4603098B422DD3030A8B4212D3E2
:10364C00FC22890112BA030A8B420CD38901921114
:10365C008B4208D3890192118B4204D389013AD051
:10366C00921100E08909C3098B4201D3CB01C01A26
:10367C00524183098B4201D38B01C01A5241430939
:10368C008B4201D34B01C01A524103098B4201D327
:10369C000B01C01A5241C3088B4201D3CB00C01A94
:1036AC00524183088B4201D38B00C01A5241D9D2AC
:1036BC0043088B4201D34B00C01A5241411A00D22D
:1036CC000146634652415B10104601D34042002B29
:1036DC0000D54942704763465B1000D3404201B5A8
:1036EC000020FFF7EFFE02BD0029F8D016E7704767
:1036FC00002B11D1002A0FD1002900D1002802D0B3
:10370C000021C943080007B4024802A140180290E6
:10371C0003BDC046B1FDFFFF03B4684601B5029876
:10372C0002F0E2FA019B9E4602B00CBC7047C04608
:10373C000448054B10B5834203D0044B002B00D03A
:10374C00984710BD580000205800002000000000D1
:10375C0006480749091A8B10C90FC91810B549102A
:10376C0003D0044B002B00D0984710BD580000200C
:10377C00580000200000000010B5074C2378002BE7
:10378C0009D1FFF7D5FF054B002B02D0044800E010
:10379C0000BF0123237010BD282200200000000070
:1037AC008C5E0008054B10B5002B03D0044905486E
:1037BC0000E000BFFFF7CCFF10BDC04600000000CA
:1037CC002C2200208C5E00080D488546FFF72AFA53
:1037DC000C480D490D4A002302E0D458C450043360
:1037EC00C4188C42F9D30A4A0A4C002301E0136036
:1037FC000432A242FBD301F0B5FE00F00FF8FEE755
:10380C000090002000000020580000208C7200085E
:10381C0058000020B4230020FEE70000F0B5DE467F
:10382C004E4645465746E0B5B9B000F043FF9149C6
:10383C00914800F04DFF0722904BA0265A630021BF
:10384C000D3215A801F060FE1025022314ACF6050C
:10385C002100300023611495FCF7F8FC33691D42FC
:10386C0006D0874B1B6883F30888864B1B689847E8
:10387C000323A0206360984600232100236199460E
:10388C00C00543331493FCF7E1FCA02020238025D2
:10389C00012702262100C0051493FCF7D7FC7A4BB4
:1038AC00AD00A66018006760210014959D62FCF7BE
:1038BC00CDFC40237549149374488B612100FCF7AF
:1038CC00C5FC2723704AE760100014932100936114
:1038DC00FCF7BCFC4B46E360434666606661A36044
:1038EC00C026A023B600DB051800149621009E62AA
:1038FC00FCF7ACFCA0200C232100C00567611493DD
:10390C00FCF7A4FC80215D4B09065A6D0120920046
:10391C0092080A435A655E4ADA635E4A1A649A6BE5
:10392C003A439A635C4B1A6816431E605B4EFCF775
:10393C00D3FD33685A4A5B4913401D4335605A4DD9
:10394C002B685800C0184000FFF732FD80227369C5
:10395C00D2000130134205D073690138134201D0F3
:10396C000028F9D180214D4A490013680B4313609C
:10397C0013680B42FCD00221404A4C4BD365D36DEB
:10398C001942FCD0382391680B40D168102B01D11F
:10399C0000F01BFC002B01D000F01BFC13685168DD
:1039AC00434B19408023DB010B435360136841499F
:1039BC000B4013601368404A9B045B0FDA402A608B
:1039CC006868FCF789FD002801D000F02FFC382234
:1039DC002A498B681340102B01D100F026FC802063
:1039EC000B68364A80041340354A0B60966F03E02F
:1039FC00936F9B1B022B1ED80B680342F8D1C8682F
:103A0C00304B1840304B0343CB60802308685B0479
:103A1C0003430B608023C8685B050343CB608021A4
:103A2C00966F1648890403E0936F9B1B022B02D8F8
:103A3C0003680B42F8D0184B19680623194201D1C0
:103A4C0000F0FCFBE0220D4BD20199680A439A600E
:103A5C009A681E490A409A601A68920169D5072231
:103A6C00996838209143053A0A439A60144A184ED3
:103A7C00976F33E0306C0008F870000800100240BB
:103A8C000000FF1F0400FF1F00040050000800503E
:103A9C0003000230010816000020024000700040B4
:103AAC00FFF9FFFF40420F000000002009800000DA
:103ABC00FF80FFFFFFC7FFFF0024F400FFFFFFFEA6
:103ACC00D80000208C80C11132301646FFF0FFFF69
:103ADC0088130000916FC91BB1422AD89968014024
:103AEC001029F7D10720F4490B680340022B01D9A8
:103AFC0000F09AFCF14BF2499A680A409A6038221D
:103B0C009968114201D000F06FFC1B68ED489B04D2
:103B1C005B0FD840E94BEC4A9B681B051B0F9B00C5
:103B2C00D218536C1F221340D84028606868FCF7E9
:103B3C00D3FCE64AE6491368E6480B401360E64BB3
:103B4C002A6819680905090D00F0C2FDE34B1A68D3
:103B5C00D20307D41A68E2490A401A60DA6BE149C9
:103B6C000A40DA638023DD4A5B02116801260B43AD
:103B7C0013603F23DC4909200A689A433A3B1343FC
:103B8C000B60DA4BDA4A19681140DA4A0A431A60B8
:103B9C00D949DA4A009299600321D94ADA605A6805
:103BAC00120C12040A435A60D64A56600222196853
:103BBC000A431A60082219680A431A601A6831000D
:103BCC0032431A60FCF774FACF4B9A68324207D131
:103BDC00DA68CE490A40DA601A69920092081A61D2
:103BEC008022C94B9203D9680A438021DA6089018B
:103BFC001A680A42FCD00722196059699143053AA8
:103C0C000A435A61702259699143203A0A430F21A1
:103C1C005A619A6A8A439A625A69AD490A405A6152
:103C2C00F022996A9143E03A0A439A6280225969D8
:103C3C0092000A435A61996AB54A1140C022D200D7
:103C4C000A439A6280225969D2010A435A619968DF
:103C5C00B04A1140802252050A439A602868AE4946
:103C6C00FFF7A6FB142343430793079B002B05D0B8
:103C7C00079B013B0793079B002BF9D1A24AA74B4B
:103C8C009168194018330B4393609368002BFCDB4D
:103C9C0080231B01136020230793079B002B05D067
:103CAC00079B013B0793079B002BF9D18023964E72
:103CBC009B05326903211343336111230C2073607C
:103CCC00FCF7F6F90121F368F368B3680B4200D1F5
:103CDC0073E3934800F0FCFC01268B4B91491A6965
:103CEC002000B2431A611A69A8460A401A619A6800
:103CFC008A490A4032439A60009B6422C53318A952
:103D0C001E7000F029FFE420400001F0BDFA020013
:103D1C0010321100C8225200070000F01DFFD02302
:103D2C00C420814A5B00FA5080000492676701F05E
:103D3C00ABFA020010321100C822070000F00CFF91
:103D4C00142001F063F9D8230022F8500023A76750
:103D5C003492359388230099E654744BFA22CB673E
:103D6C008023D200CC5004332868CA507049FFF726
:103D7C001FFB02216F4B704A013898625A63DA6854
:103D8C0016200A43DA605A6932435A611E60FCF706
:103D9C008FF96A4801F078FA694B01009C46694B2F
:103DAC00614496229C46060002909200604400F00A
:103DBC00BDFCFF22644B6548F254A36F00269A4663
:103DCC00634B51461A000593DC23CA50614B019397
:103DDC00FFF7DCFA604B039383B299465F4B9B462B
:103DEC005B463501EF583800FFF7D0FA484500D153
:103DFC0039E20136052EF3D1454600235146E02227
:103E0C008B50C22300269B00CE529423009A286824
:103E1C00D1504149FFF7CCFA514B524A01389862C4
:103E2C009A61112201271A6273325F601A6088222C
:103E3C001202DF6031005A640D20FCF739F93100B1
:103E4C000E20FCF735F928683349FFF7B1FA8023C7
:103E5C001022DB050138986299690F200A439A6198
:103E6C000222D9680A43DA605A69310017435F614C
:103E7C00FCF71EF901993C480C3100F029FC504626
:103E8C00842231009200F83001F03EFB666F17225D
:103E9C003000B1303549FF30A76F01F03DFBD22324
:103EAC0002985B00F750324A0433F0500433F2505E
:103EBC00A36F05279A465DE00020024000100240E7
:103ECC00FF8FFFFF0024F400D06600080070004054
:103EDC00FFFEFFFF0C710008005801400074004009
:103EEC00FFFF03FFFFFFF8FF00080240080002403D
:103EFC000F80FFFFA0250000402401405800002047
:103F0C001E0100200000024000240140C73FFFFFBB
:103F1C00FFF0FFFFE8FFFF6F40420F00E8FFFF7F5D
:103F2C002C710008FFFFFFDF750800084104000832
:103F3C0080841E0000480140400D0300DC1400008A
:103F4C007410000064100000D514000054670008C1
:103F5C005508000850670008D0650008F465000893
:103F6C00002C0140686800002C6C000848710008A7
:103F7C00C0E1E4005246C34B019999469C61DA6159
:103F8C001862C14B039E9846C04B18319B46243691
:103F9C0001914046316800F09BFB30897368002822
:103FAC0011D00022AC4605E0013292B202339042AD
:103FBC0000D138E119785D780D42F5D05846019959
:103FCC00654600F085FB013FFFB21036002FE0D1B3
:103FDC005246AF4B5146D754DC22AE4B80278B5008
:103FEC0000F05EFEAC4E01005046FEF72DF910219C
:103FFC005046FCF7A9F97369BF003B4203D1A748AF
:10400C0000F066FBB7612200A54908A800F07CFB14
:10401C00009B883346C846C384201022A14B1958F4
:10402C0091431950043819581143195019687938AB
:10403C001143196059680A435A600321FCF738F898
:10404C00D022666F984B5200B350019600F028FEB8
:10405C0001003000FDF72EFDD4235B00F658934B86
:10406C009846F35C7F2B00D8B8E1019B904A3360F3
:10407C000023B3548F4AB3528F4A904B516D0B436C
:10408C0053658F4B9A468B235246D36012688D4BE7
:10409C00134352461360C5229446009B63449B46CF
:1040AC001B78012B00D9C5E202211C20FCF700F87B
:1040BC005B4659461B785A1C0A7042465BB2B35495
:1040CC00002B30DB320080490BA800F01DFB3200C6
:1040DC007E490EA800F018FB32007D4911A800F0B3
:1040EC0013FB4346F356012B00D1DDE16F4BF25627
:1040FC00784B9B46784B59461800984600F0E8FAE6
:10410C006A4BF2569A46012A00D1F7E159464046CD
:10411C0000F0DEFA5346F256012A00D1EEE1594680
:10412C00404600F0D5FAD42300218826019A5B0082
:10413C00D2586A4B6A48D1546A4900F0C9FA6A4F9E
:10414C00A35D002B00D1DFE0A06F3900020000F06E
:10415C0061FD0028F4D1606F6449020000F05AFD43
:10416C000028EDD122002000614900F053FD80466B
:10417C000028E5D1012111A800F0BAFA002800D0DE
:10418C0081E172B6BFF34F8FBFF36F8F009AC432C9
:10419C001378FF2B00D154E20133A06F137000F0A1
:1041AC00F1FC002800D053E1009AC4321378002BA4
:1041BC0000D148E2013BDBB21370002BC0D1BFF33E
:1041CC004F8FBFF36F8F62B6BAE70D3B19400229D0
:1041DC001FD03949474A0B68802013400B6080235D
:1041EC000A685B001343444A0B60966FC00004E0FE
:1041FC00936F9B1B022B00D91DE40B680342F7D075
:10420C004A683E4B1A408023DB0113434B60FFF797
:10421C00DEFB13685168394B19408023DB010B43DB
:10422C005360FFF7CDFB6546CDE6CB68344B1A687F
:10423C0006231A4201D0FFF705FC2F4A0720022360
:10424C002F490E68864333430B60976F2D4E04E065
:10425C00936FDB1BB34200D96BE40B680340022B5A
:10426C00F6D1FFF7EFFB019B4A463900181D01F010
:10427C003DF9002800D0BCE54346A8461D005B462E
:10428C004344BBE5580100206071000870710008C0
:10429C000A0300005522000800040050186C0008A6
:1042AC002D04000800180240C11A0008D5140000A3
:1042BC00D4140000D81400000010024008000C00B8
:1042CC000044004001000020D1170008250300081D
:1042DC003D030008FC640008386B0008D91400008A
:1042EC00D0710008946500087D1800082918000892
:1042FC00C9130008FFC7FFFFD8000020FF80FFFF95
:10430C000020024088130000D026656F7600AF595C
:10431C0000F0D4FC01002800B847049BCB48AB51FB
:10432C0000F0D6F9D4235B00ED58C94BEA56012AAC
:10433C0003D0C849C84800F0CBF9FF228027C44BF2
:10434C00C64EEA547369BF00A56F3B4203D0C44804
:10435C0000F0BEF9B762DC26AF5900F0AFFC0100EB
:10436C002800B847059B029AAB51B94BD35C7F2B05
:10437C0054D9029800F092FFD823A56FE85800F0AA
:10438C0077FF280000F08AFF606F00F087FF72B69D
:10439C00B44800F09DF900F0B5F91121B24A136A46
:1043AC008B4313628022AD4B92009A62DA3AFF3A49
:1043BC009A61AE4B19329A62FEE7F368F268AC4B25
:1043CC001A40AC4B1343F360F3689B0200D483E4B4
:1043DC00F023B26A1B021343B3627DE40821A64AA0
:1043EC00A648FF31FCF72EFC99681140082900D132
:1043FC00C7E099681140102900D193E099681140E9
:10440C00202900D1FFE09B6800201340182B01D01D
:10441C00FFF780FBFA20C001FFF77CFB9721964A3F
:10442C0096484900FCF70EFC02230E688643334382
:10443C000B60976F924E05E0936FDB1BB34201D973
:10444C00FFF777FB0B680340022BF5D1FFF752FB0C
:10445C00606F00F097FB002800D1A5E6200000F06B
:10446C0091FB002800D19FE68022864B9200984653
:10447C005B69924613426CD10421834A13698B43C6
:10448C00136130BF90E62C2206AB9B181B784A4672
:10449C009A462423D25C002A36D151462F2973D157
:1044AC0049460132CA546CE6009B0BAA983383CA66
:1044BC0083C3009BA43383CA83C353461A68042363
:1044CC005046134303604346F356012B00D00DE6D0
:1044DC00B0220099B333CE506C4B8B50B8310B00DB
:1044EC0011AA83CA83C353461A680823134352463E
:1044FC0013604346F256012A00D0F9E52023644AA2
:10450C0011680B4313600EE653460A2B5CD06148CE
:10451C0000F0DEF85046FCF7E9FF24230022494660
:10452C00CA542EE6DA68D968D243DE684906490FC8
:10453C0076040131760E920769D05748FEF738FFA2
:10454C007043564BD968490F0131FEF731FFFFF725
:10455C00E1FA0623286852495843FEF729FF4346DF
:10456C00504A1B68013013404246136003E0002898
:10457C0000D119E60138434652465B691342F6D125
:10458C007AE74948FFF7C6FA25204B4649461B5C9B
:10459C00C9180A7152460A2A0BD04A460133DBB2BB
:1045AC00135452460A71142B00D0EAE5394800F036
:1045BC008FF84B46191D3D4B180000F089F8252348
:1045CC0000224946CA54DCE51B339B464B465A46EF
:1045DC00494658469A5C531CDBB20B542F214A4473
:1045EC001171324A9246142B16D000224B441A7188
:1045FC004B469046191D504600F06AF825234A4652
:10460C004146D15489E780200002FFF783FA2648FF
:10461C00FEF7CEFE704394E71E4800F059F84B4667
:10462C005046191D00F054F84B465A4641469954D1
:10463C004346DAE71E4800F04BF8FF234246B354DA
:10464C0071E5FCF701FCFCF71DFCC046F871000895
:10465C00D5140000FC640008386B000800040050FE
:10466C00046C000808720008002C0140000800507F
:10467C003CC2FEFF03100000887100083C7000086B
:10468C00881300000070004000ED00E0A92600082F
:10469C00004400400C7200080024F400001002409A
:1046AC0040420F00FFBFFFFF00127A00E8710008C4
:1046BC009C71000810B5FEF745FB10BD00B583B02A
:1046CC00019101AA01000020FEF740FB03B000BDE0
:1046DC000FB400B583B004AB02CB01AA0020009349
:1046EC000193FEF733FB03B008BC04B01847C04677
:1046FC000A0010B501000020FEF796FAC343DB1741
:10470C00184010BD7047C0460023836042600160B2
:10471C007047C04610B503680400002B04D04068F5
:10472C009847A3680133A36010BDC04601604B1EBF
:10473C00994100234942114041608360C360704736
:10474C0000238360C360704703009B68C068C01A75
:10475C0043425841C0B270470200C368581E936868
:10476C00C01A536800D5C0187047C0460300826851
:10477C00C1685B68501A00D5C0187047F0B5464642
:10478C00D6464F460500C0B5EB688068013B0E006D
:10479C0014001B1A1ED493421AD31700002F05D1F4
:1047AC002000E0BCBA46B146A846F0BDAB6828680C
:1047BC009C463A006044310000F0FAFEAB689C461F
:1047CC006B686744AF609F42EAD10023AB60E7E7B8
:1047DC000020E6E76A6890464344A342F8D30319E5
:1047EC00994627009A42D9D8131A9A462B685246F2
:1047FC009C46604400F0DCFE00234246AB604B4616
:10480C0056449F1ACAE7C046F8B54746CE4680B50F
:10481C00C6688368050088469C1B0BD4944207D855
:10482C002700002C20D13800C0BCB946B046F8BDDA
:10483C001400F5E7436899464C44944200D914009F
:10484C00331927009945ECD84B469F1B2B683A002F
:10485C009919404600F0ACFE4B46F61AA419B84420
:10486C0000263F19002CDED0296822004046891909
:10487C0000F09EFED7E7C046F0B54F464646D646FA
:10488C00C0B50F008368C168060014005B1A1ED403
:10489C0093421AD31500002D05D12000E0BCBA4676
:1048AC00B146A846F0BDF36831689C462A006144C5
:1048BC00380000F07DFEF3689C4673686544F56033
:1048CC009D42EAD10023F360E7E70020E6E7426867
:1048DC0090464344A342F8D30B19994625009A42BB
:1048EC00D9D8531A9A46036852469C4638006144FC
:1048FC0000F05EFE00234246F3604B4657449D1A7F
:10490C00C9E7C04670B501000400861D1D4D1E4848
:10491C0023781B025840082304E0013BDBB280B231
:10492C00002B09D002B24000002AF6DA013B6840A5
:10493C00DBB280B2002BF5D10134A642E8D14B8812
:10494C008A781D0A120215431BD008314D190D4CE3
:10495C00ADB20B781B025840082304E0013BDBB2DC
:10496C0080B2002B09D002B24000002AF6DA013BDB
:10497C006040DBB280B2002BF5D101318BB2AB427F
:10498C00E7D170BD21100000FFFF0000052804D8FE
:10499C0083001B180248C01870470248FCE7C04649
:1049AC0028720008CC67000870B5040004A80078D1
:1049BC00490000010843012101430720184000234E
:1049CC00D200024363802371200000230725C9B263
:1049DC0021706270661D082201304B4004E0013AE0
:1049EC00D2B2DBB2002A09D059B25B000029F6DA48
:1049FC00013A6B40D2B2DBB2002AF5D1B04201D001
:104A0C000178E8E763712000FFF77CFF030AE0718F
:104A1C00A371200070BDC04670B5040004A840C846
:104A2C004900058820001B010B43D2003100237084
:104A3C00627008302A0000F0BBFD2B0AA370002323
:104A4C00E570200007252371661D0278534008226B
:104A5C0004E0013AD2B2DBB2002A09D059B25B00B1
:104A6C000029F6DA013A6B40D2B2DBB2002AF5D15A
:104A7C000130B042E9D163712000FFF743FF030A14
:104A8C00E071A371200070BD70B500230724467936
:104A9C00451D02785340082204E0013AD2B2DBB241
:104AAC00002A09D059B25B000029F6DA013A6340BA
:104ABC00D2B2DBB2002AF5D10130A842E9D1F01A0A
:104ACC0042425041C0B270BD00788006800F7047E2
:104ADC0000780007400F704740788006400F704701
:104AEC004378072018407047827843881202180ACE
:104AFC00104370470830704710B50400FFF702FFF1
:104B0C00E388A1791B0A09020B43181A424250414F
:104B1C00C0B210BDB0B500AF050000F0BFF86A46DA
:104B2C00C31DDB08DB00D31A9D4602000400694656
:104B3C002800FFF769FE80B2844203D00024BD46F2
:104B4C002000B0BD684600F0D3F804002800FFF741
:104B5C000DFE8442F2D8F2E770B505000C00160089
:104B6C00002905D0320028002100FFF7DFFD70BDC1
:104B7C003D21024A0248FCF765F8F3E7D0670008CC
:104B8C00E067000810B5FFF7DFFD10BDF8B5DE4695
:104B9C0057464E464546E0B500AF1E0080468A4655
:104BAC00914600F07BF86B46C41DE408E4001B1B27
:104BBC009D460500801983B23200514668469B46DB
:104BCC0000F08AF8FCF74CF94046FFF7C5FD0024CD
:104BDC0083450DD9FCF762F95B46E01ABD464342AA
:104BEC005841C0B2F0BCBB46B246A946A046F8BD7F
:104BFC002A0069464046FFF7C1FD4B4684B2002BA4
:104C0C00E8D0320049464046FFF7B8FD2418A4B25C
:104C1C00E0E7C046F8B54E464546DE465746E0B599
:104C2C0000AF060089469046FFF774FF0025041E6E
:104C3C0007D1BD462800F0BCBB46B246A946A046EB
:104C4C00F8BD6A46C31DDB08DB00D31AEA469D4655
:104C5C00FCF706F9220069463000FFF70DFE06004E
:104C6C00B6B2EB46FCF71AF9002E01D1D546E0E7B7
:104C7C00684600F03DF8844205D159464046C84785
:104C8C000125D546D5E72521024A0348FBF7DAFF73
:104C9C00F3E7C046F8670008E06700080C2070478F
:104CAC0010B5FCF771F902000B0003480260436079
:104CBC0080235B02836010BD5822002010B5FCF7E6
:104CCC0063F902000B0003480260436080239B02DF
:104CDC00836010BD4822002070B504000E00150042
:104CEC00FCF752F96681206061602581200070BD5F
:104CFC0000890C3080B27047807A70470089704709
:104D0C000C30704710B5042A24D012D8012A15D0C3
:104D1C00022A1BD1052303700023441CC85CE054F9
:104D2C000133D8B29042F9D30220002A0AD180B2C2
:104D3C0010BD082A0AD107230370EDE70423037082
:104D4C000B784370013AD0B20230F0E714230370B1
:104D5C000120EDE706230370DEE7C046F0B5C6463A
:104D6C000E0000B5002917D0FF23050000240227F0
:104D7C00984601CDFEF70AFB80B280459B415B4211
:104D8C000233C01801343F18E4B2BFB2A642F0D1CE
:104D9C00380080BCB846F0BD0227F9E7F8B5DE460E
:104DAC0057464E4645461623E0B583460370002A07
:104DBC0038D0013AD2B2920091460B1D0E00012759
:104DCC00994411E002220C2392462B7068700A3B26
:104DDC00020454444146120CE8183F19043600F002
:104DEC00E7FBBFB2B14512D05B46DD193368180042
:104DFC009846FEF7CBFA84B2FF2CE3D90D2303229D
:104E0C002B70230AAB70924603236870E0E7781C82
:104E1C0080B25A461823D355F0BCBB46B246A946BD
:104E2C00A046F8BD02200127F3E7C04607280DD99C
:104E3C00030004220C3B9343DBB2002B09D00D384A
:104E4C009043C3B20020002B06D07047013188B2CA
:104E5C00FBE7023188B2F8E7033188B2F5E7C046C8
:104E6C00F8B5050016001C000D2909D80B291BD814
:104E7C000439032916D83100DAB2FFF743FFF8BD25
:104E8C00103901290ED8FF2B2AD810234470037037
:104E9C0002270220220031002818E41900F088FBB8
:104EAC00A0B2ECE70020EAE71000FEF76FFA84B23C
:104EBC00FF2C0FD90D232B70230AAB700327032370
:104ECC00687002043100120CE818E41900F070FB51
:104EDC00A0B2D4E70C2302272B7068700A3BF0E7D2
:104EEC0011230370230A4470837003270320D1E736
:104EFC00F0B5C64600B5838B04000D00012600AF4B
:104F0C00002B04D0BD46300080BCB846F0BD6A46CC
:104F1C00CB1DDB08DB00D31AE8469D460A000430A3
:104F2C006946FFF7A9FC854202D00026C546E9E791
:104F3C00210068461431FEF7E5F922002900684685
:104F4C002432FEF7F7F922220121A35C0B43A35470
:104F5C00C546D7E7F8B545465746DE464E46E0B55A
:104F6C00838B04008846150000AF002B25D006006B
:104F7C00242314369A46B34682442B005A4643CA1D
:104F8C0043C32221126858461A600122635C934382
:104F9C0063542A816269A38B9446013BA383638B80
:104FAC00514663446361FEF7D7F90120BD46F0BC5E
:104FBC00BB46B246A946A046F8BD0B006A4607336D
:104FCC00DB08DB00D31AE9469D460A00043069462B
:104FDC00FFF752FC804502D00020CD46E6E72600C4
:104FEC00143631006846FEF78DF924239A46A24404
:104FFC00524641466846FEF79DF922220121A35CE8
:10500C00B3460B43A354CD46B7E7C04670B5050075
:10501C00582000F039F90600FEF76CF901356C10D8
:10502C0044430134A4B2200000F02EF901003000FA
:10503C000025220002C0FFF779FB2000B58300F0A9
:10504C0023F9B0620100300022002C30FFF76EFB18
:10505C0044233000F5523565756570BD70B504009C
:10506C0004300025FFF76CFB2000A5832C30FFF7E4
:10507C0067FB4423E5522565656570BD10B5838BD0
:10508C000400002B01D0002010BD0430FFF75CFBA6
:10509C000028F8D04423E35A002BF4D120002C3004
:1050AC00FFF752FBF0E7C04670B5040004300D006A
:1050BC00FFF752FB288020002C30FFF74DFB688057
:1050CC0070BDC046F0B54F464646D646C0B5804684
:1050DC0000AF08000C0091461E00FEF70FF90128E6
:1050EC0008D9012300203370BD46E0BCBA46B14656
:1050FC00A846F0BD85002D18FEF7FCF8ED00043530
:10510C00454482462800FFF727FB824503D902233A
:10511C0000203370E8E72000FEF7EEF843461B6DE5
:10512C00834201D3002821D14346186553466A4671
:10513C000733DB08DB00D31A9D464A46210068463C
:10514C0000F036FA53464A4600219A1A484400F0B9
:10515C00DBF9524669462800FFF710FB03000120DB
:10516C009A45C1D0042300203370BDE703230020EF
:10517C003370B9E7F0B5D6464F464646C0B5040085
:10518C000D00FEF7B7F8070001002000FFF7B0FE96
:10519C0000285AD0200039002830FFF7A9FE80469D
:1051AC0000284BD000276169E06B272388427F41A0
:1051BC008842924178429843524201339C46930074
:1051CC009B18DB00E3181A0029001432BA468146FA
:1051DC00C1CAC1C11268E1440A60222294469C44AF
:1051EC00624601206146127882430A70288159690F
:1051FC0048468C4649469A8B2431013A9A835A8BFD
:10520C001430624420185A616118FEF7A5F8534611
:10521C0098005044C700E41964692B682800E41A0C
:10522C00FBF70AFD844218DDEB889C4200DAEC8027
:10523C004046E0BCBA46B146A846F0BD2A0039004B
:10524C002000FFF787FE8046F2E720002A00390095
:10525C002830FFF77FFE8046EAE76721024A0348C1
:10526C00FBF7F0FCE0E7C04618680008406800084F
:10527C0010B50400806A00F011F8206800F00EF8F8
:10528C00200000F00BF810BD10B5034B010018689E
:10529C0000F030F810BDC0460800002010B5034BDC
:1052AC000100186800F08EF910BDC04608000020FF
:1052BC0070B50F4E0D0031680400002902D100F0CA
:1052CC003FF930602900200000F03AF9431C03D16B
:1052DC0001256D42280070BD0323C51C9D43A842C7
:1052EC00F8D0291A200000F02BF90130F2D1EFE7A9
:1052FC0068220020F7B50322CB1C9343083305002A
:10530C001F000C2B34D20C27B94233D8280000F0E4
:10531C0071F8374E33681C00002C2FD1390028004F
:10532C00FFF7C6FF0400431C5FD134680094009B58
:10533C00002B4AD1002C52D023682800E318009986
:10534C00019300F0FDF8019B834248D123682800AB
:10535C00FF1A3900FFF7ACFF013040D02368DB198E
:10536C00236033685A68002A33D1009B336019E0FC
:10537C00002BC9DA0C232B600020FEBD2168C91B51
:10538C0020D40B290AD9E2192760A34204D1326038
:10539C0063681160536005E05A60F9E76268A342E4
:1053AC000ED13260280000F02DF8200007220B30BF
:1053BC00231D9043C21A9842DFD01B1AA350DCE77E
:1053CC005A60EFE723006468A6E7009C63680093CB
:1053DC00ADE71A005B68A342FBD10023DAE70C238C
:1053EC0028002B6000F00EF8C6E70760DAE7C0462D
:1053FC006C22002010B5024800F0D8F810BDC04651
:10540C00AC23002010B5024800F0D1F810BDC04606
:10541C00AC2300200CB430B5174B0C001D689DB0AC
:10542C00002908DA8B2301202B6040421DB030BCD0
:10543C0008BC02B01847822302A99B008B81002371
:10544C0002904B6608619C4200D0631E8B604B61DE
:10545C0001235B42CB81280021AB209A019300F001
:10546C005FF9431C01DA8B232B60002CDED0002269
:10547C00029B1A70DAE7C0460800002070B50600DF
:10548C00140008001A009AB0002C05DA8B230120B6
:10549C00336040421AB070BD8223694600259B00E0
:1054AC008B81199500900490AC4200D0651E0123AD
:1054BC005B42CB8130001E9B8D604D6100F030F95A
:1054CC00431C01DA8B233360002CE3D00022009BB9
:1054DC001A70DFE713B5044C009313000A000100A7
:1054EC002068FFF7CBFF16BD0800002030B5002464
:1054FC000139A24201D1002005E0035D01340D5DAC
:10550C00AB42F6D0581B30BD03008218934200D139
:10551C00704719700133F9E7030030B51D00002AFC
:10552C0006D00C78013A01332C700131002CF5D1E6
:10553C0000219A18934200D130BD19700133F9E75C
:10554C00002370B5064D040008002B6000F0BEFB74
:10555C00431C03D12B68002B00D0236070BDC046C8
:10556C00A823002070B500260C4C0D4D641BA41014
:10557C00A64209D1002600F083FC0A4C0A4D641B9C
:10558C00A410A64205D170BDB300EB589847013664
:10559C00EEE7B300EB5898470136F2E78472000847
:1055AC008472000888720008847200087047704783
:1055BC00002310B59A4200D110BDCC5CC454013309
:1055CC00F8E7000070B505000C1E10D0043C2368F1
:1055DC00002B00DAE4182800FFF70CFF1D4A1368B3
:1055EC00002B05D1636014602800FFF70BFF70BD22
:1055FC00A34208D9206821188B42F3D119685B6843
:10560C0009182160EEE71A005B68002B01D0A34259
:10561C00F9D911685018A0420BD1206809185018FC
:10562C0011608342E0D118685B68411811605360C7
:10563C00DAE7A04202D90C232B60D5E720682118A9
:10564C008B4203D119685B68091821606360546050
:10565C00CAE7C0466C220020F0B58E6885B01F00EA
:10566C000C00330002900392BE4254D80C22885E88
:10567C009022D20010422CD00322096923685B1AB5
:10568C00019363695343019ADD0FED187B1C6D1078
:10569C009B182A00AB4201D91D001A00400527D5E2
:1056AC0011000298FFF726FE061E2AD0019A2169E6
:1056BC00FFF77EFFA289194B1A4080231343A38165
:1056CC00019B2661F618266065613E00ED1A3B00D1
:1056DC00A5601F003A000399206800F0A1FA002091
:1056EC00A3689B1BA3602368DB19236005B0F0BD86
:1056FC00029800F0B2FA061EE2D121690298FFF777
:10570C0061FF0C230120029A40421360A2893433BA
:10571C001343A381EAE73E00DCE7C0467FFBFFFFB3
:10572C00F0B59FB002901C008B890E0015001B0673
:10573C0011D50B69002B0ED14021FFF7DBFD30603A
:10574C003061002805D10C23029A136001204042DD
:10575C00D4E0402373610023292102AA52180B9331
:10576C0020331370013102AA1033521813700594B0
:10577C002C002378002B01D0252B48D1671BAC4281
:10578C000BD03B002A0031000298FFF765FF013077
:10579C0000D1AEE00B9BDB190B932378002B00D1CF
:1057AC00A7E00122532100235242079202AA521869
:1057BC00651C06930993089313701C93554F297815
:1057CC000522380000F03EFA6C1C069906AB002846
:1057DC001FD1CA0604D55327202202A8C019027073
:1057EC000A0704D553272B2202A8C01902702A7865
:1057FC002A2A15D02C0000200A27DA682178651C8B
:10580C003039092950D9002811D009920FE0013400
:10581C00AFE70123C01B83400B4325000693CDE764
:10582C00059A101D12680590002A37DBDA60227881
:10583C002E2A0CD162782A2A3BD1059A0234111DEA
:10584C0012680591002A01DA012252425A60324D47
:10585C0003222800217800F0F5F906AF002806D0C5
:10586C004023401B8340069A01341343069321784E
:10587C0006222A48651C397600F0E4F900283FD04E
:10588C00274B002B29D10722059B07339343083361
:10589C0005930B9B03995B180B9369E75242DA60F3
:1058AC0002220A430692C2E77A432C0001205218C6
:1058BC00A4E700220A205A60110013000134227858
:1058CC00651C303A092A03D9002BC0D00791BEE7DA
:1058DC0041432C0001238918F1E705AA00923900F5
:1058EC003200104B029800E000BF0390039B013381
:1058FC00CFD1B3890B985B0600D527E71FB0F0BD5D
:10590C0005AA009239003200064B029800F07CF890
:10591C00EBE7C046467200084C7200085072000853
:10592C000000000065560008F7B5160001938A6860
:10593C000B690C000090934200DA130022003360D4
:10594C0043321278002A01D00133336023689B065E
:10595C0002D53368023333602268062315001D40DC
:10596C001A4227D0230043331B785A1E93412268D6
:10597C00920630D4220001990098089D4332A84722
:10598C00013025D00622236800251340042B05D1B5
:10599C003368E568ED1AEB43DB171D40A3682269F9
:1059AC00934201DD9B1AED180026B54220D1002050
:1059BC0010E00135E36832689B1AAB42D2DD22005D
:1059CC00012301990098089F1932B8470130F0D192
:1059DC0001204042FEBD3020E11843310870210007
:1059EC005A1C45310978A218433202331170C1E7B1
:1059FC002200012301990098089F1A32B847013000
:105A0C00E6D00136D1E70000F0B58BB006920A0063
:105A1C0043320793059003920A7E0C00109B782A60
:105A2C0009D8622A0BD8002A00D1BAE07A4904912D
:105A3C00582A00D18EE0250042352A7022E0100051
:105A4C0063381528F7D8FDF7A9FC16001F00F6FFE0
:105A5C00F6FFF6FFF6FF1F00F6FFF6FFF6FFF6FF68
:105A6C009F0036007E00F6FFF6FFB000F6FF360012
:105A7C00F6FFF6FF820025001A684235111D1960E9
:105A8C0013682B7001239EE018680968021D0D062F
:105A9C000BD506681A60002E03DA2D23039A764282
:105AAC0013705D4B0A27049318E006681A604906C8
:105ABC00F1D536B2EFE70868196840C9050602D47B
:105ACC00400600D5B6B21960534B0A2704936F2ACF
